:020000020000FC
:040000000C9422003A
:04000C000C947700D9
:100040000C9473000FEF0DBF08E00EBFF89401E0B1
:100050000093680003E000936B0000E800936100E8
:1000600004E00093610003E005BD04E606BD01E085
:1000700000936E000FEF07B900E008B90FEF0AB95F
:1000800000E00BB900E004B90FEF05B900E070E043
:1000900090E07E306D79335B5F707F7B770A789478
:1000A000F0E0E2E9E70F8491459844988BB9449ACF
:1000B0000E9484004498F0E0E2E9E90F84914598B9
:1000C0008BB9459A0E9484004598443649F74427E5
:1000D00073957A3009F0E4CF77279395963001F73E
:1000E00099270C94500004E606BD4395189521E02D
:1000F0002BBB13B110FD04C033953F7F38B9189561
:100100003A953A9538B91895E0E0E395E436E9F781
:02011000089550
:00000001FF
