:020000020000FC
:100000000FEF0DBF08E00EBF00E80093610004E0B1
:10001000009361000E9467000FEF0AB900E00BB97E
:100020000FEF07B900E008B900E004B90FEF05B918
:1000300080E070E01FEF30E047E45EE790E00EE71D
:10004000A0E0B1E00D9300E30D930DE60D9309E7F9
:100050000D9303E30D930BE50D930FE50D9300E76F
:100060000D930FE70D930BE70D9307E70D930FE14A
:100070000D930EE40D930DE30D930FE40D9307E440
:100080000D93A0E0B1E00C910BB903B110130E94E5
:10009000580065B360FFF9CFA89A6EE966BD8395F5
:1000A0008A3099F788270E94960078B98827EDCF83
:1000B00003B1101751F30E946C0003B1101729F31C
:1000C000102F0E9479000E9482003BB9089565E0DC
:1000D00065BD6EE966BD089520E023952030E9F7FF
:1000E00020E023952030E9F720E023952030E9F740
:1000F00008953C9100FD08953D910E948A009395DA
:100100009F70089501FD08950E9490003E919A9578
:100110009F70089534130895A0E0B1E03C910895D4
:1001200035130895A0E1B1E03C9108958827872F09
:100130008F70891714F408C00895707275FD02C09D
:0C0140007062089570E0089573950895B2
:00000001FF
