S011000050726F796563746F322E737265638C
S11300000C9447000C9464000C9464000C946400F9
S11300100C9464000C9464000C9464000C946400CC
S11300200C9464000C9464000C9464000C946400BC
S11300300C9464000C9464000C9464000C946400AC
S11300400C9464000C9464000C9439020C946400C5
S11300500C9464000C9469020C9464000C94640085
S11300600C9464000C946400D301EE00EE00EE00E6
S1130070EE00EE00EE00EE0002011802EE00EC01CC
S1130080EE00EE00470147014701EE00470111244D
S11300901FBECFEFD8E0DEBFCDBF11E0A0E0B1E0DE
S11300A0E0E4FAE002C005900D92AC3BB107D9F749
S11300B021E0ACEBB1E001C01D92A33DB207E1F732
S11300C00E94E8000C941E050C94000084B1826028
S11300D084B9A0E8B0E082E08C93E1E8F0E088E144
S11300E080838C9180688C938FE39CE99093870044
S11300F08093860080818260808308959093890034
S113010080938800089584B1846084B9E0E8F0E0C5
S1130110808180628083089590938B0080938A000D
S1130120089584B1886084B98AB188608AB983EA01
S11301308093B00087E08093B10008958093B3006A
S113014008958093B40008958AB182608AB98AB10F
S11301508E7F8AB91092C00088E98093C10086E03E
S11301608093C20087E690E09093C5008093C4001A
S113017008959091C00095FFFCCF8093C600089528
S1130180CF93DF93EC0103C021960E94B9008881CC
S11301908111FACFDF91CF91089580E680937C009E
S11301A0EAE7F0E08FE880838081806480830895AB
S11301B0F8948AB180638AB90E94A4000E94CD0099
S11301C00E9466000E9483000E9491007894089522
S11301D00E94D8008DE191E00E94C0008091C1018D
S11301E08823E1F31092C101C091C3018C2F90E0E8
S11301F0FC01E554F109E331F10580F7EC5CFF4FB4
S11302000C94E30484EC91E00E94F8049FEF980FAF
S1130210933020F78093010180E591E00E94C000B3
S113022080910101813081F482E691E00E94C00056
S11302308BB180618BB98BB18F7D8BB9EAE7F0E02C
S11302408081806C80831EC0833069F48BE691E0EA
S11302500E94C0008BB180638BB9EAE7F0E0808133
S11302608F7780830FC085E491E00E94C0008BB13A
S113027080628BB98BB18F7E8BB9EAE7F0E0808125
S11302808F77808381E391E00E94C000A7CF8091A3
S11302900101823009F0A2CF84EC91E00E94F804BD
S11302A08C01C33581F49C01AAE0BFE00E94E904FB
S11302B02FEF30E040E050E00E94C104C9018055B6
S11302C09B4F0E947E008091C301843581F4980184
S11302D0AAE0BFE00E94E9042FEF30E040E050E0E4
S11302E00E94C104C90180559B4F0E948C008091DB
S11302F0C301853549F5C801A0E0B0E0AC01BD01FA
S1130300440F551F661F771F840F951FA61FB71F25
S1130310AC01BD01440F551F661F771F440F551FC5
S1130320661F771F6C017D01C40ED51EE61EF71EE5
S1130330C701B6012FEF30E040E050E00E94C10455
S1130340C90140960E949E008091C301873509F03F
S113035045CFC801A0E0B0E0AC01BD01440F551F7A
S1130360661F771F840F951FA61FB71FAC01BD0121
S1130370440F551F661F771F440F551F661F771FB5
S11303807C018D01E40EF51E061F171FC801B7017D
S11303902FEF30E040E050E00E94C104C9014096D4
S11303A00E94A1001BCF80910101833009F016CF78
S11303B084EC91E00E94F80480930001813019F4E8
S11303C082E091E002C080E191E00E94C00084E7F5
S11303D091E00E94C00002CF80910101833009F0B6
S11303E0FDCE84EC91E00E94F8048093BF019FEF5E
S11303F0980F943008F0F2CE90E00197880F991F7F
S1130400880F991F9093BE018093BD0185E891E008
S11304100E94C0008091BF01805D0E94B9008DE8F8
S113042091E00E94C0008DE991E00E94C000D6CE08
S113043080910101833009F0D1CE84EC91E00E94D7
S1130440F80421E0892B09F420E02093BC0183EB1C
S113045091E00E94C0008091BC01882311F081E3E7
S113046001C080E30E94B90081E791E00E94C000CE
S1130470B5CE1F920F920FB60F9211248F939F93B4
S1130480EF93FF938091C6008A3021F09091C201CE
S11304909F3060F0E091C201F0E0ED53FE4F108216
S11304A01092C20181E08093C1010AC0E091C201AF
S11304B091E09E0F9093C201F0E0ED53FE4F8083D4
S11304C0FF91EF919F918F910F900FBE0F901F900E
S11304D018951F920F920FB60F9211240F931F932A
S11304E02F933F934F935F936F937F938F939F9338
S11304F0AF93BF93EF93FF938091790090917A002B
S113050099230CF08FC09091C0019130F9F018F04C
S11305109230B9F169C0282F30E0A0E1BEE00E941A
S1130520E9042FEF30E040E050E00E94C104C9012B
S113053080559B4F0E947E00ECE7F0E08081807F35
S11305408160808381E08093C0016CC0282F30E0FB
S1130550A0E1BEE00E94E9042FEF30E040E050E06B
S11305600E94C104C90180559B4F0E948C00ECE796
S1130570F0E08081807F8260808382E08093C0018C
S113058051C090E0A0E0B0E0AC01BD01440F551FA4
S1130590661F771F840F951FA61FB71FAC01BD01EF
S11305A0440F551F661F771F440F551F661F771F83
S11305B08C019D01040F151F261F371FC901B801A7
S11305C02FEF30E040E050E00E94C104C9014096A2
S11305D00E949E00ECE7F0E08081807F836080834E
S11305E083E08093C0011EC0682F70E080E090E03B
S11305F00E94C80327E836E149ED5DE30E945404F4
S113060020E030E040E251E40E942B030E94970373
S1130610CB010E94A100ECE7F0E08081807F808321
S11306201092C001EAE7F0E0808180648083FF914A
S1130630EF91BF91AF919F918F917F916F915F9156
S11306404F913F912F911F910F910F900FBE0F90DB
S11306501F9018955058BB27AA270E9442030C9458
S11306601A040E940C0438F00E94130420F039F498
S11306709F3F19F426F40C9409040EF4E095E7FB6B
S11306800C940304E92F0E942B0458F3BA17620751
S113069073078407950720F079F4A6F50C944D04AC
S11306A00EF4E0950B2EBA2FA02D0B01B901900189
S11306B00C01CA01A0011124FF27591B99F0593FCD
S11306C050F4503E68F11A16F040A22F232F342F15
S11306D04427585FF3CF469537952795A795F04063
S11306E05395C9F77EF41F16BA0B620B730B840B78
S11306F0BAF09150A1F0FF0FBB1F661F771F881F30
S1130700C2F70EC0BA0F621F731F841F48F4879587
S113071077956795B795F7959E3F08F0B0CF939579
S1130720880F08F09927EE0F9795879508950E94F2
S1130730330488F09F5798F0B92F9927B751B0F038
S1130740E1F0660F771F881F991F1AF0BA95C9F751
S113075014C0B13091F00E944D04B1E008950C949E
S11307604D04672F782F8827B85F39F0B93FCCF351
S1130770869577956795B395D9F73EF490958095CE
S1130780709561957F4F8F4F9F4F0895E89409C0EE
S113079097FB3EF490958095709561957F4F8F4FB0
S11307A09F4F9923A9F0F92F96E9BB279395F695C6
S11307B0879577956795B795F111F8CFFAF4BB0F44
S11307C011F460FF1BC06F5F7F4F8F4F9F4F16C0A8
S11307D0882311F096E911C0772321F09EE8872F32
S11307E0762F05C0662371F096E8862F70E060E0EE
S11307F02AF09A95660F771F881FDAF7880F969567
S1130800879597F9089597F99F6780E870E060E00D
S113081008959FEF80EC089500240A941616170695
S113082018060906089500240A94121613061406DD
S113083005060895092E0394000C11F4882352F040
S1130840BB0F40F4BF2B11F460FF04C06F5F7F4FF8
S11308508F4F9F4F089557FD9058440F551F59F0DF
S11308605F3F71F04795880F97FB991F61F09F3F99
S113087079F087950895121613061406551FF2CFC2
S11308804695F1DF08C0161617061806991FF1CF12
S113089086957105610508940895E894BB27662739
S11308A07727CB0197F908950E9467040C941A04E2
S11308B00E940C0438F00E94130420F0952311F0D8
S11308C00C9403040C94090411240C944E040E9407
S11308D02B0470F3959FC1F3950F50E0551F629F51
S11308E0F001729FBB27F00DB11D639FAA27F00D85
S11308F0B11DAA1F649F6627B00DA11D661F829FAC
S11309002227B00DA11D621F739FB00DA11D621F90
S1130910839FA00D611D221F749F3327A00D611DAD
S1130920231F849F600D211D822F762F6A2F11248F
S11309309F5750409AF0F1F088234AF0EE0FFF1FC2
S1130940BB1F661F771F881F91505040A9F79E3F19
S1130950510580F00C9403040C944E045F3FE4F3BF
S1130960983ED4F3869577956795B795F795E7956F
S11309709F5FC1F7FE2B880F911D9695879597F978
S11309800895A1E21A2EAA1BBB1BFD010DC0AA1FCC
S1130990BB1FEE1FFF1FA217B307E407F50720F0E4
S11309A0A21BB30BE40BF50B661F771F881F991F5F
S11309B01A9469F760957095809590959B01AC01A8
S11309C0BD01CF010895EE0FFF1F0590F491E02DB6
S11309D00994A29FB001B39FC001A39F700D811D14
S11309E01124911DB29F700D811D1124911D089534
S11309F0FC0188279927E89421912032E9F32930D2
S1130A0010F02E30C8F32B3241F02D3239F46894B3
S1130A1004C00E941605820F911D219120532A3093
S1130A20C0F31EF4909581959F4F08957AE0979FA7
S1130A30902D879F802D910D11240895F894FFCF58
S1130A400101577269746520626C6F636B0D0A0053
S1130A505265616420626C6F636B0D0A000D0A536A
S1130A60656C656363696F6E65206D6F646F3A0DC5
S1130A700A312E4D616E75616C20322E45455052FF
S1130A804F4D20332E41646166727569740D0A00FE
S1130A900D0A4D6F646F2063616D626961646F3A22
S1130AA020004D616E75616C0D0A00454550524F32
S1130AB04D0D0A00312E577269746520322E52652D
S1130AC061640D0A00426C6F7175652000207365C6
S1130AD06C656363696F6E61646F0D0A00557365BD
S1130AE0204E302F4E312070617261207374617911
S10F0AF00D0A0053746179203D200000C1
S9030000FC
