:020000020000FC
:040000000C942F002D
:040010000C945903F0
:100040000C94B1037D506E7653373F707F73770AFF
:100050001F1C1F1E1F1E1F1F1E1F1E1F02040FEF2F
:100060000DBF08E00EBFF8940FE000936C0002E0B3
:100070000093680000E80093610004E000936100D1
:1000800002E005BD03E806BD01E000936E0000EF4D
:1000900007B90FE008B90FEF0AB900E00BB90FEF8D
:1000A00004B900E005B9552700E000930001009372
:1000B00001010093020100930301009309010093E1
:1000C0000A010093050100930701009308010093C2
:1000D0000C01202E01E00093040101E000930601D1
:1000E00040E030E081E06627DD2401E0C02E08E139
:1000F000E02E0CE0502E0FEF302E00E0402E01E0FD
:1001000000930B0178940E949902403061F04130D5
:1001100021F1423029F0433021F0443019F0F3CF7F
:100120002EC0C5C080C1449A459850FD0E94B902B6
:1001300050FF0E94E10251FD0E94310351FF0E94D5
:10014000090321FF0E94A500F3C11C9902C02C9A4B
:1001500003C02C980E94B40208954498459A50FD1B
:100160000E94B90250FF0E94E10251FD0E9431033A
:1001700051FF0E94090321FF0E94A500D9C12898C0
:1001800029982A982B98449A4598603031F061302C
:10019000F9F0623009F0CCC157C0813019F08230DB
:1001A00061F0C6C10E9409030E94B4020E9431039B
:1001B0000E94B4020E940903BBC10E94B9020E94BE
:1001C000B4020E94E1020E94B4020E94B902B0C1CE
:1001D000813019F0823001F1ABC160E00091020181
:1001E0000395D394DE1001C00AC00A3079F40027C9
:1001F00000930201009103010395083151F4002797
:10020000DD24009302010093030192C100930201D7
:100210008FC1009303018CC160E000910001039540
:100220000A3061F400270093000100910101039559
:10023000063039F40027009301017AC100930001D0
:1002400077C10093010174C1813019F08230E9F067
:100250006FC160E0009102010A95DA94D31001C0E9
:100260000AC00F3F99F609E00093020100910301D3
:100270000A950F3F71F608E1D02EDA9403E000935F
:10028000020102E00093030153C160E0009100010C
:100290000A950F3F99F609E00093000100910101D2
:1002A0000A950F3F71F605E00093010141C14498A2
:1002B000459A603031F0613029F0623009F038C180
:1002C00052C06BCF823019F0813041F131C160E012
:1002D00010910801E0E5F0E0E10FF11D14910091AB
:1002E000040103952394211201C00AC00A3081F44D
:1002F000002700930401009105010395063059F48D
:1003000001E022240093040100270093050110C19D
:10031000009304010DC1009305010AC160E0009142
:10032000060103951091080113951093080115110A
:1003300001C00AC00A3089F4002700930601009129
:1003400007010395023061F401E0009306010027E4
:100350000093080100930701EBC000930601E8C079
:1003600000930701E5C0823019F08130D1F1E0C07F
:1003700060E010910801E0E5F0E0E10FF11D14915B
:10038000009104010A952A94231001C00AC00F3F6E
:1003900031F509E000930401009105010A950F3F32
:1003A000F9F4212E2A941C3129F01E3151F01F310D
:1003B00079F0BEC008E00093040102E0009305015B
:1003C000B7C000E00093040103E000930501B0C052
:1003D00001E00093040103E000930501A9C098CF58
:1003E0009ACF60E0009106010A95109108011A95D4
:1003F00010930801131101C00AC00F3F91F409E0E6
:1004000000930601009107010A950F3F59F402E09D
:100410000093060101E0009307010BE0009308013F
:1004200087C09BCF9DCF449A459A2D9828982998AC
:100430002A982B98603031F0613059F0623009F021
:1004400077C043C0813019F0823011F071C0AACE5C
:10045000B4CE813019F0823001F16AC060E00091C1
:100460000B010395C394CE1001C00AC00A3079F481
:10047000002700930B0100910C010395083151F402
:100480000027CC2400930B0100930C0151C0009372
:100490000B014EC000930C014BC060E000910901BC
:1004A00003950A3061F400270093090100910A01C5
:1004B0000395063039F4002700930A0139C00093F0
:1004C000090136C000930A0133C0813019F082302F
:1004D000E9F02EC060E000910B010A95CA94C310A8
:1004E00001C00AC00F3F99F609E000930B0100918B
:1004F0000C010A950F3F71F608E1C02ECA9403E083
:1005000000930B0102E000930C0112C060E0009127
:1005100009010A950F3F99F609E00093090100913E
:100520000A010A950F3F71F605E000930A0100C029
:10053000EACDB0910001C0910901BC1314C0B09183
:100540000101C0910A01BC130EC0B0910201C0911B
:100550000B01BC1308C0B0910301C0910C01BC1386
:1005600002C02D9A08950895E0E0E395E436E9F796
:100570000895289829982A982B98413071F0433093
:1005800061F04430A1F000910001E4E4F0E0E00FFC
:10059000F11D04910BB92B9A089500910401E4E434
:1005A000F0E0E00FF11D04910BB9299A0895009134
:1005B0000901E4E4F0E0E00FF11D04910BB92B9A7E
:1005C0000895289829982A982B98413071F0433043
:1005D00061F04430A1F000910101E4E4F0E0E00FAB
:1005E000F11D04910BB92A9A089500910501E4E4E4
:1005F000F0E0E00FF11D04910BB9289A08950091E5
:100600000A01E4E4F0E0E00FF11D04910BB92A9A2D
:100610000895289829982A982B98413071F04330F2
:1006200061F04430A1F000910301E4E4F0E0E00F58
:10063000F11D04910BB9289A089500910701E4E493
:10064000F0E0E00FF11D04910BB92A9A0895009192
:100650000C01E4E4F0E0E00FF11D04910BB9289ADD
:100660000895289829982A982B98413071F04330A2
:1006700061F04430A1F000910201E4E4F0E0E00F09
:10068000F11D04910BB9299A089500910601E4E443
:10069000F0E0E00FF11D04910BB92B9A0895009141
:1006A0000B01E4E4F0E0E00FF11D04910BB9299A8D
:1006B00008950F930FB70F9360E01D993CC0329BD4
:1006C000439505E0401301C04427339B339502E076
:1006D000301301C03327403049F0413041F04230FF
:1006E00039F0433071F04430A9F021C020C01FC060
:1006F000309B61E0319B62E03030A9F03130A9F0ED
:1007000016C0309B61E0319B62E0303061F03130E7
:1007100061F00DC0309B61E0319B62E0303019F038
:10072000313019F004C081E002C082E000C00F91B6
:100730000FBF0F911895339B2D98339B01C0F7CFB6
:10074000009109010A950F3F21F409E00093090186
:10075000EECF00930901EBCF94C07BC07DC07FC07A
:1007600081C00F930FB70F9303E806BD4230A1F38A
:10077000433091F3443081F361E053955A3F61F780
:1007800055272395203F41F722270091000103952B
:100790000A3019F700270093000100910101039529
:1007A0000630E1F600270093010100910201039554
:1007B000D394DE1001C00AC00A3089F600270093E6
:1007C0000201009103010395083151F60027DD2451
:1007D000009302010093030110910801E0E5F0E0AD
:1007E000E10FF11D1491009104010395239421124E
:1007F00001C00AC00A30C9F5002700930401009126
:10080000050103950630A1F501E0222400930401BF
:10081000002700930501009106010395109108013E
:10082000139510930801151101C00AC00A3019F57B
:100830000027009306010091070103950230F1F4AF
:1008400001E00093060100270093080100930701CF
:1008500018C00093000115C00093010112C000935D
:1008600002010FC0009303010CC00093040109C0F2
:100870000093050106C00093060103C00093070121
:0A08800000C00F910FBF0F911895F3
:00000001FF
