S00C00004C414E362E7372656307
S11300000C9434000C9451000C9451000C94510045
S11300100C9451000C9451000C9451000C94510018
S11300200C9451000C9451000C9451000C94510008
S11300300C9451000C9451000C9451000C945100F8
S11300400C9451000C9451000C9488000C945100B1
S11300500C9451000C94BB000C9451000C9451006E
S11300600C9451000C94510011241FBECFEFD8E022
S1130070DEBFCDBF11E0A0E0B1E0E2EAF2E002C0F1
S113008005900D92AE38B107D9F721E0AEE8B1E0A2
S113009001C01D92A139B207E1F70E94EC000C9453
S11300A04F010C9400008AB182608AB98AB18E7FB4
S11300B08AB98AB180648AB98AB180688AB910928F
S11300C0C00088E98093C10086E08093C20087E67F
S11300D090E09093C5008093C40008959091C0006F
S11300E095FFFCCF8093C60008950F931F93CF9381
S11300F08C01C0E003C00E946E00CF5FF801EC0FDA
S1130100F11D80818111F7CFCF911F910F91089537
S11301101F920F920FB60F9211248F938091C600F5
S113012080938F0181E080938E018F910F900FBE99
S11301300F901F901895ECE7F0E0108280818064A6
S11301408083808180628083EAE7F0E0108280818E
S11301508F68808380818064808387B18E7F87B934
S11301600895F8948FEF84B915B80E9453000E9443
S11301709B00789408951F920F920FB60F9211244A
S11301808F93EF93FF938091790080939001EAE736
S1130190F0E0808180648083FF91EF918F910F90D4
S11301A00FBE0F901F901895CF93DF9300D000D00F
S11301B0CDB7DEB74AE0BE016F5F7F4F90E00E948B
S11301C02501CE0101960E9475000F900F900F90AB
S11301D00F90DF91CF9108950E94B10080E091E0EB
S11301E00E94750080918E018823E1F310928E01A4
S11301F080918F01813349F4809190010E94D40051
S113020089E791E00E9475001BC080918F018233C1
S113021099F4809190010E946E0089E791E00E9418
S113022075008091900185B99BB1809190019F7375
S1130230807C892B8BB904C08CE791E00E94750007
S113024080E091E00E947500CDCFBB27FB015527CC
S1130250AA27880F991FAA1FA41710F0A41B83951F
S11302605051B9F7A05DAA3308F0A95DA193009796
S113027079F7B111B1931192CB010C943F01DC01D8
S1130280FC01672F71917723E1F7329704C07C91C9
S11302906D9370836291AE17BF07C8F30895F89405
S10502A0FFCF8A
S11302A20D0A496E6772657365206C61206F706315
S11302B269F36E20717565206465736565207265E6
S11302C2616C697A61720D0A312E204C6565722067
S11302D2656C2076616C6F722064656C20706F743B
S11302E2656E63696F6D6574726F0D0A322E204DEF
S11302F2616E64617220656C2076616C6F72206439
S1130302656C20706F74656E63696F6D6574726F6E
S113031220656E2041534349490D0A004F706369B9
S1110322F36E20696E76E16C6964610D0A0069
S9030000FC
