:100000000C9434000C9451000C9451000C94510049
:100010000C9451000C9451000C9451000C9451001C
:100020000C9451000C9451000C9451000C9451000C
:100030000C9451000C9451000C9451000C945100FC
:100040000C9439010C9451000C9451000C94510003
:100050000C9451000C949E000C9451000C9451008F
:100060000C9451000C94510011241FBECFEFD8E026
:10007000DEBFCDBF11E0A0E0B1E0ECE4F3E002C0F0
:1000800005900D92A230B107D9F721E0A2E0B1E0CE
:1000900001C01D92A530B207E1F70E949B000C94AD
:1000A000A4010C94000084B1826084B9A0E8B0E09F
:1000B00082E08C93E1E8F0E088E180838C918068B5
:1000C0008C938FE39CE990938700809386008081D6
:1000D00082608083089590938900809388000895BA
:1000E000ECE7F0E0108280E68083EAE7F0E010823F
:1000F0008081836080838081806280838081886842
:100100008083808180648083109204010895F89434
:100110000E9470000E9453000E9465010E945701D6
:1001200087B18B7F87B987B18E7F87B987B18D7F84
:1001300087B9789408950E948700FFCF1F920F928D
:100140000FB60F9211242F933F934F935F936F93AA
:100150007F938F939F93AF93BF93EF93FF93809180
:100160000401811128C0ECE7F0E0108280818064F6
:1001700080838081806280838081807F8083809182
:1001800004018F5F809304012091790030E0AAE0A0
:10019000BFE00E9495012FEF30E040E050E00E9468
:1001A0007301C90180559B4F909301018093000119
:1001B0000E946B0048C080910401813049F5ECE752
:1001C000F0E01082808180648083808180628083FF
:1001D0008081807F81608083809104018F5F809324
:1001E00004012091790030E0AAE0BFE00E9495016F
:1001F0002FEF30E040E050E00E947301C9018055CC
:100200009B4F90930101809300010E946E011BC0DF
:10021000809104018230B9F4ECE7F0E01082808133
:10022000806480838081806280838081807F82601F
:1002300080831092040180917900809302018AE604
:100240008A95F1F700C0EAE7F0E08081806480835E
:10025000FF91EF91BF91AF919F918F917F916F919E
:100260005F914F913F912F910F900FBE0F901F9074
:1002700018951F920F920FB60F9211248F939F9390
:10028000809103018F5F8093030190910201891790
:1002900020F485B1816085B903C085B18E7F85B9B1
:1002A0009F918F910F900FBE0F901F90189584B162
:1002B000816084B914BC15BC85B5816085BDEEE64E
:1002C000F0E0808181608083089584B1846084B986
:1002D000E0E8F0E0808180628083089590938B0055
:1002E00080938A000895A1E21A2EAA1BBB1BFD0170
:1002F0000DC0AA1FBB1FEE1FFF1FA217B307E40705
:10030000F50720F0A21BB30BE40BF50B661F771F5C
:10031000881F991F1A9469F760957095809590953C
:100320009B01AC01BD01CF010895A29FB001B39F15
:10033000C001A39F700D811D1124911DB29F700DEE
:0C034000811D1124911D0895F894FFCF39
:02034C00E803C4
:00000001FF
