S00F00007072656C6162342E737265636B
S11300000C9434000C9451000C9451000C94510045
S11300100C948A000C9451000C9451000C945100DF
S11300200C9451000C9451000C9451000C94510008
S11300300C9451000C9451000C9451000C945100F8
S11300400C9451000C9451000C9451000C945100E8
S11300500C9451000C94A4000C9451000C94510085
S11300600C9451000C94510011241FBECFEFD8E022
S1130070DEBFCDBF11E0A0E0B1E0E2E2F2E002C0F9
S113008005900D92A031B107D9F721E0A0E1B1E0CC
S113009001C01D92A431B207E1F70E9487000C94BD
S11300A00F010C940000ECE7F0E010828081806482
S11300B08083808180628083808182608083EAE79C
S11300C0F0E0108280818B688083808180648083EB
S11300D00895F894E1E6F0E080E8808384E080838A
S11300E08FEF8AB91BB884B915B817B888B91092BC
S11300F0C100E8E6F0E0808182608083ECE6F0E015
S11301008081836080830E945300789408950E94C4
S11301106900FFCF1F920F920FB60F9211248F9395
S1130120309905C0809110018F5F8093100131993F
S113013005C0809110018150809310018F910F9020
S11301400FBE0F901F9018951F920F920FB60F922B
S113015011248F939F93EF93FF9380917900809361
S11301601301853010F41092130180911301E82FCC
S1130170E295EF70E09312018F7080931101F0E02B
S1130180E050FF4F80818BB985B1826085B98FE1E2
S113019093E00197F1F700C0000085B18D7F85B928
S11301A0E0911101F0E0E050FF4F80818BB985B1FF
S11301B0816085B98FE193E00197F1F700C00000F9
S11301C085B18E7F85B9809110018BB985B184602A
S11301D085B98FE193E00197F1F700C0000085B184
S11301E08B7F85B99091130180911001981720F0AD
S11301F085B1886085B905C0981718F485B1877FE3
S113020085B9EAE7F0E0808180648083FF91EF9113
S11302109F918F910F900FBE0F901F901895F89497
S1050220FFCF0A
S113022277416E6B593B3F617F7B7D1F364F3E3C6E
S9030000FC
